{
  "contractName": "CarRentabnjvdfl",
  "abi": [
    {
      "inputs": [],
      "stateMutability": "nonpayable",
      "type": "constructor"
    },
    {
      "anonymous": false,
      "inputs": [
        {
          "indexed": false,
          "internalType": "uint256",
          "name": "carId",
          "type": "uint256"
        },
        {
          "indexed": false,
          "internalType": "string",
          "name": "model",
          "type": "string"
        },
        {
          "indexed": false,
          "internalType": "uint256",
          "name": "rentalPrice",
          "type": "uint256"
        },
        {
          "indexed": false,
          "internalType": "string",
          "name": "status",
          "type": "string"
        },
        {
          "indexed": false,
          "internalType": "string",
          "name": "imageUrl",
          "type": "string"
        }
      ],
      "name": "CarAdded",
      "type": "event"
    },
    {
      "anonymous": false,
      "inputs": [
        {
          "indexed": false,
          "internalType": "uint256",
          "name": "carCount",
          "type": "uint256"
        },
        {
          "indexed": false,
          "internalType": "string",
          "name": "model",
          "type": "string"
        },
        {
          "indexed": false,
          "internalType": "uint256",
          "name": "rentalPrice",
          "type": "uint256"
        },
        {
          "indexed": false,
          "internalType": "string",
          "name": "status",
          "type": "string"
        },
        {
          "indexed": false,
          "internalType": "string",
          "name": "imageUrl",
          "type": "string"
        }
      ],
      "name": "CarAddedDebug",
      "type": "event"
    },
    {
      "anonymous": false,
      "inputs": [
        {
          "indexed": false,
          "internalType": "uint256",
          "name": "carId",
          "type": "uint256"
        }
      ],
      "name": "CarMadeAvailable",
      "type": "event"
    },
    {
      "anonymous": false,
      "inputs": [
        {
          "indexed": false,
          "internalType": "uint256",
          "name": "carId",
          "type": "uint256"
        },
        {
          "indexed": false,
          "internalType": "address",
          "name": "renter",
          "type": "address"
        },
        {
          "indexed": false,
          "internalType": "string",
          "name": "startDate",
          "type": "string"
        },
        {
          "indexed": false,
          "internalType": "string",
          "name": "endDate",
          "type": "string"
        },
        {
          "indexed": false,
          "internalType": "string",
          "name": "startTime",
          "type": "string"
        },
        {
          "indexed": false,
          "internalType": "string",
          "name": "returnTime",
          "type": "string"
        }
      ],
      "name": "CarRented",
      "type": "event"
    },
    {
      "anonymous": false,
      "inputs": [
        {
          "indexed": false,
          "internalType": "uint256",
          "name": "carId",
          "type": "uint256"
        },
        {
          "indexed": false,
          "internalType": "address",
          "name": "renter",
          "type": "address"
        },
        {
          "indexed": false,
          "internalType": "string",
          "name": "newStatus",
          "type": "string"
        }
      ],
      "name": "CarReturned",
      "type": "event"
    },
    {
      "anonymous": false,
      "inputs": [
        {
          "indexed": false,
          "internalType": "uint256",
          "name": "carId",
          "type": "uint256"
        },
        {
          "indexed": false,
          "internalType": "bool",
          "name": "available",
          "type": "bool"
        }
      ],
      "name": "DebugCarAvailability",
      "type": "event"
    },
    {
      "anonymous": false,
      "inputs": [
        {
          "indexed": false,
          "internalType": "uint256",
          "name": "carId",
          "type": "uint256"
        }
      ],
      "name": "DebugCarId",
      "type": "event"
    },
    {
      "inputs": [
        {
          "internalType": "address",
          "name": "",
          "type": "address"
        }
      ],
      "name": "balances",
      "outputs": [
        {
          "internalType": "uint256",
          "name": "",
          "type": "uint256"
        }
      ],
      "stateMutability": "view",
      "type": "function"
    },
    {
      "inputs": [],
      "name": "carCount",
      "outputs": [
        {
          "internalType": "uint256",
          "name": "",
          "type": "uint256"
        }
      ],
      "stateMutability": "view",
      "type": "function"
    },
    {
      "inputs": [
        {
          "internalType": "uint256",
          "name": "",
          "type": "uint256"
        }
      ],
      "name": "cars",
      "outputs": [
        {
          "internalType": "uint256",
          "name": "id",
          "type": "uint256"
        },
        {
          "internalType": "string",
          "name": "model",
          "type": "string"
        },
        {
          "internalType": "uint256",
          "name": "rentalPrice",
          "type": "uint256"
        },
        {
          "internalType": "bool",
          "name": "available",
          "type": "bool"
        },
        {
          "internalType": "address",
          "name": "owner",
          "type": "address"
        },
        {
          "internalType": "string",
          "name": "status",
          "type": "string"
        },
        {
          "internalType": "string",
          "name": "imageUrl",
          "type": "string"
        }
      ],
      "stateMutability": "view",
      "type": "function"
    },
    {
      "inputs": [],
      "name": "owner",
      "outputs": [
        {
          "internalType": "address",
          "name": "",
          "type": "address"
        }
      ],
      "stateMutability": "view",
      "type": "function"
    },
    {
      "inputs": [
        {
          "internalType": "address",
          "name": "",
          "type": "address"
        }
      ],
      "name": "rentals",
      "outputs": [
        {
          "internalType": "uint256",
          "name": "carId",
          "type": "uint256"
        },
        {
          "internalType": "address",
          "name": "renter",
          "type": "address"
        },
        {
          "internalType": "string",
          "name": "startDate",
          "type": "string"
        },
        {
          "internalType": "string",
          "name": "endDate",
          "type": "string"
        },
        {
          "internalType": "string",
          "name": "startTime",
          "type": "string"
        },
        {
          "internalType": "string",
          "name": "returnTime",
          "type": "string"
        }
      ],
      "stateMutability": "view",
      "type": "function"
    },
    {
      "inputs": [
        {
          "internalType": "address",
          "name": "",
          "type": "address"
        }
      ],
      "name": "users",
      "outputs": [
        {
          "internalType": "uint256",
          "name": "id",
          "type": "uint256"
        },
        {
          "internalType": "string",
          "name": "name",
          "type": "string"
        },
        {
          "internalType": "string",
          "name": "email",
          "type": "string"
        },
        {
          "internalType": "string",
          "name": "phone",
          "type": "string"
        },
        {
          "internalType": "string",
          "name": "cin",
          "type": "string"
        },
        {
          "internalType": "bool",
          "name": "exists",
          "type": "bool"
        }
      ],
      "stateMutability": "view",
      "type": "function"
    },
    {
      "inputs": [],
      "name": "withdrawFunds",
      "outputs": [],
      "stateMutability": "nonpayable",
      "type": "function"
    },
    {
      "inputs": [
        {
          "internalType": "string",
          "name": "name",
          "type": "string"
        },
        {
          "internalType": "string",
          "name": "email",
          "type": "string"
        },
        {
          "internalType": "string",
          "name": "phone",
          "type": "string"
        },
        {
          "internalType": "string",
          "name": "cin",
          "type": "string"
        }
      ],
      "name": "registerUser",
      "outputs": [],
      "stateMutability": "nonpayable",
      "type": "function"
    },
    {
      "inputs": [
        {
          "internalType": "string",
          "name": "model",
          "type": "string"
        },
        {
          "internalType": "uint256",
          "name": "rentalPrice",
          "type": "uint256"
        },
        {
          "internalType": "string",
          "name": "status",
          "type": "string"
        },
        {
          "internalType": "string",
          "name": "imageUrl",
          "type": "string"
        }
      ],
      "name": "addCar",
      "outputs": [],
      "stateMutability": "nonpayable",
      "type": "function"
    },
    {
      "inputs": [
        {
          "internalType": "uint256",
          "name": "carId",
          "type": "uint256"
        }
      ],
      "name": "getCar",
      "outputs": [
        {
          "internalType": "uint256",
          "name": "",
          "type": "uint256"
        },
        {
          "internalType": "string",
          "name": "",
          "type": "string"
        },
        {
          "internalType": "uint256",
          "name": "",
          "type": "uint256"
        },
        {
          "internalType": "bool",
          "name": "",
          "type": "bool"
        },
        {
          "internalType": "string",
          "name": "",
          "type": "string"
        },
        {
          "internalType": "string",
          "name": "",
          "type": "string"
        }
      ],
      "stateMutability": "view",
      "type": "function"
    },
    {
      "inputs": [],
      "name": "getAllCars",
      "outputs": [
        {
          "internalType": "uint256[]",
          "name": "",
          "type": "uint256[]"
        },
        {
          "internalType": "string[]",
          "name": "",
          "type": "string[]"
        },
        {
          "internalType": "uint256[]",
          "name": "",
          "type": "uint256[]"
        },
        {
          "internalType": "bool[]",
          "name": "",
          "type": "bool[]"
        },
        {
          "internalType": "address[]",
          "name": "",
          "type": "address[]"
        },
        {
          "internalType": "string[]",
          "name": "",
          "type": "string[]"
        },
        {
          "internalType": "string[]",
          "name": "",
          "type": "string[]"
        }
      ],
      "stateMutability": "view",
      "type": "function"
    },
    {
      "inputs": [
        {
          "internalType": "uint256",
          "name": "carId",
          "type": "uint256"
        },
        {
          "internalType": "string",
          "name": "startDate",
          "type": "string"
        },
        {
          "internalType": "string",
          "name": "endDate",
          "type": "string"
        },
        {
          "internalType": "string",
          "name": "startTime",
          "type": "string"
        },
        {
          "internalType": "string",
          "name": "returnTime",
          "type": "string"
        }
      ],
      "name": "rentCar",
      "outputs": [],
      "stateMutability": "payable",
      "type": "function"
    },
    {
      "inputs": [
        {
          "internalType": "uint256",
          "name": "carId",
          "type": "uint256"
        }
      ],
      "name": "makeCarAvailable",
      "outputs": [],
      "stateMutability": "nonpayable",
      "type": "function"
    },
    {
      "inputs": [
        {
          "internalType": "address",
          "name": "user",
          "type": "address"
        },
        {
          "internalType": "uint256",
          "name": "amount",
          "type": "uint256"
        }
      ],
      "name": "addBalance",
      "outputs": [],
      "stateMutability": "nonpayable",
      "type": "function"
    },
    {
      "inputs": [
        {
          "internalType": "address",
          "name": "user",
          "type": "address"
        },
        {
          "internalType": "uint256",
          "name": "amount",
          "type": "uint256"
        }
      ],
      "name": "deductBalance",
      "outputs": [],
      "stateMutability": "nonpayable",
      "type": "function"
    },
    {
      "inputs": [
        {
          "internalType": "uint256",
          "name": "carId",
          "type": "uint256"
        },
        {
          "internalType": "string",
          "name": "newStatus",
          "type": "string"
        }
      ],
      "name": "returnCar",
      "outputs": [],
      "stateMutability": "nonpayable",
      "type": "function"
    }
  ],
  "bytecode": "0x6080604052600060055534801561001557600080fd5b50336000806101000a81548173ffffffffffffffffffffffffffffffffffffffff021916908373ffffffffffffffffffffffffffffffffffffffff160217905550613336806100656000396000f3fe6080604052600436106100f35760003560e01c80638da5cb5b1161008a578063abfe5d5711610059578063abfe5d5714610335578063b3e72c3f14610366578063e2fbae4814610382578063f7746e36146103ab576100f3565b80638da5cb5b1461027657806393e54a56146102a15780639676fa6c146102ca578063a87430ba146102f3576100f3565b8063297a1f56116100c6578063297a1f561461019e5780633cfcf9a9146101c95780635e8be190146101f25780636ba85eb414610234576100f3565b8063131223a9146100f857806321e5383a1461012157806324600fc31461014a57806327e235e314610161575b600080fd5b34801561010457600080fd5b5061011f600480360381019061011a91906124c2565b6103ee565b005b34801561012d57600080fd5b5061014860048036038101906101439190612318565b61045d565b005b34801561015657600080fd5b5061015f6104fa565b005b34801561016d57600080fd5b50610188600480360381019061018391906122ef565b6105f1565b6040516101959190612c5e565b60405180910390f35b3480156101aa57600080fd5b506101b3610609565b6040516101c09190612c5e565b60405180910390f35b3480156101d557600080fd5b506101f060048036038101906101eb9190612417565b61060f565b005b3480156101fe57600080fd5b50610219600480360381019061021491906124c2565b6107a6565b60405161022b96959493929190612e35565b60405180910390f35b34801561024057600080fd5b5061025b600480360381019061025691906122ef565b610a41565b60405161026d96959493929190612cb7565b60405180910390f35b34801561028257600080fd5b5061028b610cbd565b6040516102989190612ae3565b60405180910390f35b3480156102ad57600080fd5b506102c860048036038101906102c39190612354565b610ce1565b005b3480156102d657600080fd5b506102f160048036038101906102ec91906124eb565b610e87565b005b3480156102ff57600080fd5b5061031a600480360381019061031591906122ef565b610ff7565b60405161032c96959493929190612d34565b60405180910390f35b34801561034157600080fd5b5061034a611260565b60405161035d9796959493929190612afe565b60405180910390f35b610380600480360381019061037b919061253f565b611adf565b005b34801561038e57600080fd5b506103a960048036038101906103a49190612318565b611e54565b005b3480156103b757600080fd5b506103d260048036038101906103cd91906124c2565b611f73565b6040516103e59796959493929190612db1565b60405180910390f35b600060036000838152602001908152602001600020905060018160030160006101000a81548160ff0219169083151502179055507faae6fd94e571b13e7a9df9975a5b28afc05f5ecff3cb1a8816852bdd443ab9f0826040516104519190612c5e565b60405180910390a15050565b600081116104a0576040517f08c379a000000000000000000000000000000000000000000000000000000000815260040161049790612b9e565b60405180910390fd5b80600260008473ffffffffffffffffffffffffffffffffffffffff1673ffffffffffffffffffffffffffffffffffffffff16815260200190815260200160002060008282546104ef91906130a5565b925050819055505050565b60008054906101000a900473ffffffffffffffffffffffffffffffffffffffff1673ffffffffffffffffffffffffffffffffffffffff163373ffffffffffffffffffffffffffffffffffffffff1614610588576040517f08c379a000000000000000000000000000000000000000000000000000000000815260040161057f90612c3e565b60405180910390fd5b60008054906101000a900473ffffffffffffffffffffffffffffffffffffffff1673ffffffffffffffffffffffffffffffffffffffff166108fc479081150290604051600060405180830381858888f193505050501580156105ee573d6000803e3d6000fd5b50565b60026020528060005260406000206000915090505481565b60055481565b60056000815480929190610622906131eb565b91905055506040518060e0016040528060055481526020018581526020018481526020016001151581526020013373ffffffffffffffffffffffffffffffffffffffff168152602001838152602001828152506003600060055481526020019081526020016000206000820151816000015560208201518160010190805190602001906106b092919061217a565b506040820151816002015560608201518160030160006101000a81548160ff02191690831515021790555060808201518160030160016101000a81548173ffffffffffffffffffffffffffffffffffffffff021916908373ffffffffffffffffffffffffffffffffffffffff16021790555060a082015181600401908051906020019061073e92919061217a565b5060c082015181600501908051906020019061075b92919061217a565b509050507f05c2d074588a6bd2b3981239602124002e151ab709524e541e1bec54a0c06da960055485858585604051610798959493929190612eab565b60405180910390a150505050565b600060606000806060806000600360008981526020019081526020016000206040518060e0016040529081600082015481526020016001820180546107ea906131b9565b80601f0160208091040260200160405190810160405280929190818152602001828054610816906131b9565b80156108635780601f1061083857610100808354040283529160200191610863565b820191906000526020600020905b81548152906001019060200180831161084657829003601f168201915b50505050508152602001600282015481526020016003820160009054906101000a900460ff161515151581526020016003820160019054906101000a900473ffffffffffffffffffffffffffffffffffffffff1673ffffffffffffffffffffffffffffffffffffffff1673ffffffffffffffffffffffffffffffffffffffff1681526020016004820180546108f7906131b9565b80601f0160208091040260200160405190810160405280929190818152602001828054610923906131b9565b80156109705780601f1061094557610100808354040283529160200191610970565b820191906000526020600020905b81548152906001019060200180831161095357829003601f168201915b50505050508152602001600582018054610989906131b9565b80601f01602080910402602001604051908101604052809291908181526020018280546109b5906131b9565b8015610a025780601f106109d757610100808354040283529160200191610a02565b820191906000526020600020905b8154815290600101906020018083116109e557829003601f168201915b505050505081525050905080600001518160200151826040015183606001518460a001518560c001519650965096509650965096505091939550919395565b60046020528060005260406000206000915090508060000154908060010160009054906101000a900473ffffffffffffffffffffffffffffffffffffffff1690806002018054610a90906131b9565b80601f0160208091040260200160405190810160405280929190818152602001828054610abc906131b9565b8015610b095780601f10610ade57610100808354040283529160200191610b09565b820191906000526020600020905b815481529060010190602001808311610aec57829003601f168201915b505050505090806003018054610b1e906131b9565b80601f0160208091040260200160405190810160405280929190818152602001828054610b4a906131b9565b8015610b975780601f10610b6c57610100808354040283529160200191610b97565b820191906000526020600020905b815481529060010190602001808311610b7a57829003601f168201915b505050505090806004018054610bac906131b9565b80601f0160208091040260200160405190810160405280929190818152602001828054610bd8906131b9565b8015610c255780601f10610bfa57610100808354040283529160200191610c25565b820191906000526020600020905b815481529060010190602001808311610c0857829003601f168201915b505050505090806005018054610c3a906131b9565b80601f0160208091040260200160405190810160405280929190818152602001828054610c66906131b9565b8015610cb35780601f10610c8857610100808354040283529160200191610cb3565b820191906000526020600020905b815481529060010190602001808311610c9657829003601f168201915b5050505050905086565b60008054906101000a900473ffffffffffffffffffffffffffffffffffffffff1681565b600160003373ffffffffffffffffffffffffffffffffffffffff1673ffffffffffffffffffffffffffffffffffffffff16815260200190815260200160002060050160009054906101000a900460ff1615610d71576040517f08c379a0000000000000000000000000000000000000000000000000000000008152600401610d6890612bfe565b60405180910390fd5b6040518060c0016040528042815260200185815260200184815260200183815260200182815260200160011515815250600160003373ffffffffffffffffffffffffffffffffffffffff1673ffffffffffffffffffffffffffffffffffffffff168152602001908152602001600020600082015181600001556020820151816001019080519060200190610e0692919061217a565b506040820151816002019080519060200190610e2392919061217a565b506060820151816003019080519060200190610e4092919061217a565b506080820151816004019080519060200190610e5d92919061217a565b5060a08201518160050160006101000a81548160ff02191690831515021790555090505050505050565b600060036000848152602001908152602001600020905060018160030160006101000a81548160ff02191690831515021790555080600401604051610ecc9190612acc565b6040518091039020828051906020012014610eed57610eec336014611e54565b5b81816004019080519060200190610f0592919061217a565b50600460003373ffffffffffffffffffffffffffffffffffffffff1673ffffffffffffffffffffffffffffffffffffffff1681526020019081526020016000206000808201600090556001820160006101000a81549073ffffffffffffffffffffffffffffffffffffffff0219169055600282016000610f859190612200565b600382016000610f959190612200565b600482016000610fa59190612200565b600582016000610fb59190612200565b50507f9476ecb56500885b7ec8035d72f2543fdf4011ce39e09de64c480214673274b6833384604051610fea93929190612c79565b60405180910390a1505050565b6001602052806000526040600020600091509050806000015490806001018054611020906131b9565b80601f016020809104026020016040519081016040528092919081815260200182805461104c906131b9565b80156110995780601f1061106e57610100808354040283529160200191611099565b820191906000526020600020905b81548152906001019060200180831161107c57829003601f168201915b5050505050908060020180546110ae906131b9565b80601f01602080910402602001604051908101604052809291908181526020018280546110da906131b9565b80156111275780601f106110fc57610100808354040283529160200191611127565b820191906000526020600020905b81548152906001019060200180831161110a57829003601f168201915b50505050509080600301805461113c906131b9565b80601f0160208091040260200160405190810160405280929190818152602001828054611168906131b9565b80156111b55780601f1061118a576101008083540402835291602001916111b5565b820191906000526020600020905b81548152906001019060200180831161119857829003601f168201915b5050505050908060040180546111ca906131b9565b80601f01602080910402602001604051908101604052809291908181526020018280546111f6906131b9565b80156112435780601f1061121857610100808354040283529160200191611243565b820191906000526020600020905b81548152906001019060200180831161122657829003601f168201915b5050505050908060050160009054906101000a900460ff16905086565b6060806060806060806060600060055467ffffffffffffffff8111156112af577f4e487b7100000000000000000000000000000000000000000000000000000000600052604160045260246000fd5b6040519080825280602002602001820160405280156112dd5781602001602082028036833780820191505090505b509050600060055467ffffffffffffffff811115611324577f4e487b7100000000000000000000000000000000000000000000000000000000600052604160045260246000fd5b60405190808252806020026020018201604052801561135757816020015b60608152602001906001900390816113425790505b509050600060055467ffffffffffffffff81111561139e577f4e487b7100000000000000000000000000000000000000000000000000000000600052604160045260246000fd5b6040519080825280602002602001820160405280156113cc5781602001602082028036833780820191505090505b509050600060055467ffffffffffffffff811115611413577f4e487b7100000000000000000000000000000000000000000000000000000000600052604160045260246000fd5b6040519080825280602002602001820160405280156114415781602001602082028036833780820191505090505b509050600060055467ffffffffffffffff811115611488577f4e487b7100000000000000000000000000000000000000000000000000000000600052604160045260246000fd5b6040519080825280602002602001820160405280156114b65781602001602082028036833780820191505090505b509050600060055467ffffffffffffffff8111156114fd577f4e487b7100000000000000000000000000000000000000000000000000000000600052604160045260246000fd5b60405190808252806020026020018201604052801561153057816020015b606081526020019060019003908161151b5790505b509050600060055467ffffffffffffffff811115611577577f4e487b7100000000000000000000000000000000000000000000000000000000600052604160045260246000fd5b6040519080825280602002602001820160405280156115aa57816020015b60608152602001906001900390816115955790505b5090506000600190505b6005548111611ab9576000600360008381526020019081526020016000206040518060e0016040529081600082015481526020016001820180546115f7906131b9565b80601f0160208091040260200160405190810160405280929190818152602001828054611623906131b9565b80156116705780601f1061164557610100808354040283529160200191611670565b820191906000526020600020905b81548152906001019060200180831161165357829003601f168201915b50505050508152602001600282015481526020016003820160009054906101000a900460ff161515151581526020016003820160019054906101000a900473ffffffffffffffffffffffffffffffffffffffff1673ffffffffffffffffffffffffffffffffffffffff1673ffffffffffffffffffffffffffffffffffffffff168152602001600482018054611704906131b9565b80601f0160208091040260200160405190810160405280929190818152602001828054611730906131b9565b801561177d5780601f106117525761010080835404028352916020019161177d565b820191906000526020600020905b81548152906001019060200180831161176057829003601f168201915b50505050508152602001600582018054611796906131b9565b80601f01602080910402602001604051908101604052809291908181526020018280546117c2906131b9565b801561180f5780601f106117e45761010080835404028352916020019161180f565b820191906000526020600020905b8154815290600101906020018083116117f257829003601f168201915b505050505081525050905080600001518960018461182d91906130fb565b81518110611864577f4e487b7100000000000000000000000000000000000000000000000000000000600052603260045260246000fd5b60200260200101818152505080602001518860018461188391906130fb565b815181106118ba577f4e487b7100000000000000000000000000000000000000000000000000000000600052603260045260246000fd5b60200260200101819052508060400151876001846118d891906130fb565b8151811061190f577f4e487b7100000000000000000000000000000000000000000000000000000000600052603260045260246000fd5b60200260200101818152505080606001518660018461192e91906130fb565b81518110611965577f4e487b7100000000000000000000000000000000000000000000000000000000600052603260045260246000fd5b60200260200101901515908115158152505080608001518560018461198a91906130fb565b815181106119c1577f4e487b7100000000000000000000000000000000000000000000000000000000600052603260045260246000fd5b602002602001019073ffffffffffffffffffffffffffffffffffffffff16908173ffffffffffffffffffffffffffffffffffffffff16815250508060a0015184600184611a0e91906130fb565b81518110611a45577f4e487b7100000000000000000000000000000000000000000000000000000000600052603260045260246000fd5b60200260200101819052508060c0015183600184611a6391906130fb565b81518110611a9a577f4e487b7100000000000000000000000000000000000000000000000000000000600052603260045260246000fd5b6020026020010181905250508080611ab1906131eb565b9150506115b4565b50868686868686869d509d509d509d509d509d509d505050505050505090919293949596565b60006003600087815260200190815260200160002090507f87a9e391dd553c8b7004a6aae1b19627e53299aa971b3ed804eb77ab94c924de863387878787604051611b2f96959493929190612cb7565b60405180910390a18060030160009054906101000a900460ff16611b88576040517f08c379a0000000000000000000000000000000000000000000000000000000008152600401611b7f90612c1e565b60405180910390fd5b8060020154341015611bcf576040517f08c379a0000000000000000000000000000000000000000000000000000000008152600401611bc690612bde565b60405180910390fd5b6000816002015434611be191906130fb565b90506000811115611c34573373ffffffffffffffffffffffffffffffffffffffff166108fc829081150290604051600060405180830381858888f19350505050158015611c32573d6000803e3d6000fd5b505b8160030160019054906101000a900473ffffffffffffffffffffffffffffffffffffffff1673ffffffffffffffffffffffffffffffffffffffff166108fc83600201549081150290604051600060405180830381858888f19350505050158015611ca2573d6000803e3d6000fd5b5060008260030160006101000a81548160ff0219169083151502179055506040518060c001604052808881526020013373ffffffffffffffffffffffffffffffffffffffff16815260200187815260200186815260200185815260200184815250600460003373ffffffffffffffffffffffffffffffffffffffff1673ffffffffffffffffffffffffffffffffffffffff1681526020019081526020016000206000820151816000015560208201518160010160006101000a81548173ffffffffffffffffffffffffffffffffffffffff021916908373ffffffffffffffffffffffffffffffffffffffff1602179055506040820151816002019080519060200190611daf92919061217a565b506060820151816003019080519060200190611dcc92919061217a565b506080820151816004019080519060200190611de992919061217a565b5060a0820151816005019080519060200190611e0692919061217a565b509050507f87a9e391dd553c8b7004a6aae1b19627e53299aa971b3ed804eb77ab94c924de873388888888604051611e4396959493929190612cb7565b60405180910390a150505050505050565b60008111611e97576040517f08c379a0000000000000000000000000000000000000000000000000000000008152600401611e8e90612b9e565b60405180910390fd5b80600260008473ffffffffffffffffffffffffffffffffffffffff1673ffffffffffffffffffffffffffffffffffffffff168152602001908152602001600020541015611f19576040517f08c379a0000000000000000000000000000000000000000000000000000000008152600401611f1090612bbe565b60405180910390fd5b80600260008473ffffffffffffffffffffffffffffffffffffffff1673ffffffffffffffffffffffffffffffffffffffff1681526020019081526020016000206000828254611f6891906130fb565b925050819055505050565b6003602052806000526040600020600091509050806000015490806001018054611f9c906131b9565b80601f0160208091040260200160405190810160405280929190818152602001828054611fc8906131b9565b80156120155780601f10611fea57610100808354040283529160200191612015565b820191906000526020600020905b815481529060010190602001808311611ff857829003601f168201915b5050505050908060020154908060030160009054906101000a900460ff16908060030160019054906101000a900473ffffffffffffffffffffffffffffffffffffffff1690806004018054612069906131b9565b80601f0160208091040260200160405190810160405280929190818152602001828054612095906131b9565b80156120e25780601f106120b7576101008083540402835291602001916120e2565b820191906000526020600020905b8154815290600101906020018083116120c557829003601f168201915b5050505050908060050180546120f7906131b9565b80601f0160208091040260200160405190810160405280929190818152602001828054612123906131b9565b80156121705780601f1061214557610100808354040283529160200191612170565b820191906000526020600020905b81548152906001019060200180831161215357829003601f168201915b5050505050905087565b828054612186906131b9565b90600052602060002090601f0160209004810192826121a857600085556121ef565b82601f106121c157805160ff19168380011785556121ef565b828001600101855582156121ef579182015b828111156121ee5782518255916020019190600101906121d3565b5b5090506121fc9190612240565b5090565b50805461220c906131b9565b6000825580601f1061221e575061223d565b601f01602090049060005260206000209081019061223c9190612240565b5b50565b5b80821115612259576000816000905550600101612241565b5090565b600061227061226b84612f44565b612f13565b90508281526020810184848401111561228857600080fd5b612293848285613177565b509392505050565b6000813590506122aa816132d2565b92915050565b600082601f8301126122c157600080fd5b81356122d184826020860161225d565b91505092915050565b6000813590506122e9816132e9565b92915050565b60006020828403121561230157600080fd5b600061230f8482850161229b565b91505092915050565b6000806040838503121561232b57600080fd5b60006123398582860161229b565b925050602061234a858286016122da565b9150509250929050565b6000806000806080858703121561236a57600080fd5b600085013567ffffffffffffffff81111561238457600080fd5b612390878288016122b0565b945050602085013567ffffffffffffffff8111156123ad57600080fd5b6123b9878288016122b0565b935050604085013567ffffffffffffffff8111156123d657600080fd5b6123e2878288016122b0565b925050606085013567ffffffffffffffff8111156123ff57600080fd5b61240b878288016122b0565b91505092959194509250565b6000806000806080858703121561242d57600080fd5b600085013567ffffffffffffffff81111561244757600080fd5b612453878288016122b0565b9450506020612464878288016122da565b935050604085013567ffffffffffffffff81111561248157600080fd5b61248d878288016122b0565b925050606085013567ffffffffffffffff8111156124aa57600080fd5b6124b6878288016122b0565b91505092959194509250565b6000602082840312156124d457600080fd5b60006124e2848285016122da565b91505092915050565b600080604083850312156124fe57600080fd5b600061250c858286016122da565b925050602083013567ffffffffffffffff81111561252957600080fd5b612535858286016122b0565b9150509250929050565b600080600080600060a0868803121561255757600080fd5b6000612565888289016122da565b955050602086013567ffffffffffffffff81111561258257600080fd5b61258e888289016122b0565b945050604086013567ffffffffffffffff8111156125ab57600080fd5b6125b7888289016122b0565b935050606086013567ffffffffffffffff8111156125d457600080fd5b6125e0888289016122b0565b925050608086013567ffffffffffffffff8111156125fd57600080fd5b612609888289016122b0565b9150509295509295909350565b60006126228383612672565b60208301905092915050565b600061263a838361281f565b60208301905092915050565b600061265283836128bc565b905092915050565b60006126668383612aae565b60208301905092915050565b61267b8161312f565b82525050565b61268a8161312f565b82525050565b600061269b82612fc9565b6126a58185613034565b93506126b083612f74565b8060005b838110156126e15781516126c88882612616565b97506126d383613000565b9250506001810190506126b4565b5085935050505092915050565b60006126f982612fd4565b6127038185613045565b935061270e83612f84565b8060005b8381101561273f578151612726888261262e565b97506127318361300d565b925050600181019050612712565b5085935050505092915050565b600061275782612fdf565b6127618185613056565b93508360208202850161277385612f94565b8060005b858110156127af57848403895281516127908582612646565b945061279b8361301a565b925060208a01995050600181019050612777565b50829750879550505050505092915050565b60006127cc82612fea565b6127d68185613067565b93506127e183612fa4565b8060005b838110156128125781516127f9888261265a565b975061280483613027565b9250506001810190506127e5565b5085935050505092915050565b61282881613141565b82525050565b61283781613141565b82525050565b6000815461284a816131b9565b6128548186613078565b9450600182166000811461286f5760018114612880576128b3565b60ff198316865281860193506128b3565b61288985612fb4565b60005b838110156128ab5781548189015260018201915060208101905061288c565b838801955050505b50505092915050565b60006128c782612ff5565b6128d18185613083565b93506128e1818560208601613186565b6128ea816132c1565b840191505092915050565b600061290082612ff5565b61290a8185613094565b935061291a818560208601613186565b612923816132c1565b840191505092915050565b600061293b602083613094565b91507f416d6f756e74206d7573742062652067726561746572207468616e207a65726f6000830152602082019050919050565b600061297b601483613094565b91507f496e73756666696369656e742062616c616e63650000000000000000000000006000830152602082019050919050565b60006129bb601483613094565b91507f496e636f72726563742072656e74616c206665650000000000000000000000006000830152602082019050919050565b60006129fb601783613094565b91507f5573657220616c726561647920726567697374657265640000000000000000006000830152602082019050919050565b6000612a3b601183613094565b91507f436172206e6f7420617661696c61626c650000000000000000000000000000006000830152602082019050919050565b6000612a7b601683613094565b91507f4e6f742074686520636f6e7472616374206f776e6572000000000000000000006000830152602082019050919050565b612ab78161316d565b82525050565b612ac68161316d565b82525050565b6000612ad8828461283d565b915081905092915050565b6000602082019050612af86000830184612681565b92915050565b600060e0820190508181036000830152612b18818a6127c1565b90508181036020830152612b2c818961274c565b90508181036040830152612b4081886127c1565b90508181036060830152612b5481876126ee565b90508181036080830152612b688186612690565b905081810360a0830152612b7c818561274c565b905081810360c0830152612b90818461274c565b905098975050505050505050565b60006020820190508181036000830152612bb78161292e565b9050919050565b60006020820190508181036000830152612bd78161296e565b9050919050565b60006020820190508181036000830152612bf7816129ae565b9050919050565b60006020820190508181036000830152612c17816129ee565b9050919050565b60006020820190508181036000830152612c3781612a2e565b9050919050565b60006020820190508181036000830152612c5781612a6e565b9050919050565b6000602082019050612c736000830184612abd565b92915050565b6000606082019050612c8e6000830186612abd565b612c9b6020830185612681565b8181036040830152612cad81846128f5565b9050949350505050565b600060c082019050612ccc6000830189612abd565b612cd96020830188612681565b8181036040830152612ceb81876128f5565b90508181036060830152612cff81866128f5565b90508181036080830152612d1381856128f5565b905081810360a0830152612d2781846128f5565b9050979650505050505050565b600060c082019050612d496000830189612abd565b8181036020830152612d5b81886128f5565b90508181036040830152612d6f81876128f5565b90508181036060830152612d8381866128f5565b90508181036080830152612d9781856128f5565b9050612da660a083018461282e565b979650505050505050565b600060e082019050612dc6600083018a612abd565b8181036020830152612dd881896128f5565b9050612de76040830188612abd565b612df4606083018761282e565b612e016080830186612681565b81810360a0830152612e1381856128f5565b905081810360c0830152612e2781846128f5565b905098975050505050505050565b600060c082019050612e4a6000830189612abd565b8181036020830152612e5c81886128f5565b9050612e6b6040830187612abd565b612e78606083018661282e565b8181036080830152612e8a81856128f5565b905081810360a0830152612e9e81846128f5565b9050979650505050505050565b600060a082019050612ec06000830188612abd565b8181036020830152612ed281876128f5565b9050612ee16040830186612abd565b8181036060830152612ef381856128f5565b90508181036080830152612f0781846128f5565b90509695505050505050565b6000604051905081810181811067ffffffffffffffff82111715612f3a57612f39613292565b5b8060405250919050565b600067ffffffffffffffff821115612f5f57612f5e613292565b5b601f19601f8301169050602081019050919050565b6000819050602082019050919050565b6000819050602082019050919050565b6000819050602082019050919050565b6000819050602082019050919050565b60008190508160005260206000209050919050565b600081519050919050565b600081519050919050565b600081519050919050565b600081519050919050565b600081519050919050565b6000602082019050919050565b6000602082019050919050565b6000602082019050919050565b6000602082019050919050565b600082825260208201905092915050565b600082825260208201905092915050565b600082825260208201905092915050565b600082825260208201905092915050565b600081905092915050565b600082825260208201905092915050565b600082825260208201905092915050565b60006130b08261316d565b91506130bb8361316d565b9250827fffffffffffffffffffffffffffffffffffffffffffffffffffffffffffffffff038211156130f0576130ef613234565b5b828201905092915050565b60006131068261316d565b91506131118361316d565b92508282101561312457613123613234565b5b828203905092915050565b600061313a8261314d565b9050919050565b60008115159050919050565b600073ffffffffffffffffffffffffffffffffffffffff82169050919050565b6000819050919050565b82818337600083830152505050565b60005b838110156131a4578082015181840152602081019050613189565b838111156131b3576000848401525b50505050565b600060028204905060018216806131d157607f821691505b602082108114156131e5576131e4613263565b5b50919050565b60006131f68261316d565b91507fffffffffffffffffffffffffffffffffffffffffffffffffffffffffffffffff82141561322957613228613234565b5b600182019050919050565b7f4e487b7100000000000000000000000000000000000000000000000000000000600052601160045260246000fd5b7f4e487b7100000000000000000000000000000000000000000000000000000000600052602260045260246000fd5b7f4e487b7100000000000000000000000000000000000000000000000000000000600052604160045260246000fd5b6000601f19601f8301169050919050565b6132db8161312f565b81146132e657600080fd5b50565b6132f28161316d565b81146132fd57600080fd5b5056fea26469706673582212202e0e924571a89abc99b96e2a050b55057784e6c3fbaef52983de2103daa8364564736f6c63430008000033",
  "immutableReferences": {},
  "source": "// SPDX-License-Identifier: MIT\r\npragma solidity ^0.8.0;\r\n\r\ncontract CarRentabnjvdfl {\r\n    address public owner;\r\n\r\n    struct Car {\r\n        uint id;\r\n        string model;\r\n        uint rentalPrice;\r\n        bool available;\r\n\r\n        address owner; // Propritaire de la voiture\r\n        string status; // Nouveau champ : statut de la voiture\r\n        string imageUrl; // Nouveau champ : URL de l'image de la voiture\r\n    }\r\n\r\nmodifier onlyCarOwner(uint carId) {\r\n    require(msg.sender == cars[carId].owner, \"Not the car owner\");\r\n    _;\r\n}\r\n\r\n\r\n\r\n    struct User {\r\n        uint256 id;\r\n   \r\n        string name;\r\n        string email;\r\n        string phone;\r\n        string cin;\r\n        bool exists;\r\n    }\r\n      \r\n    struct Rental {\r\n        uint carId;\r\n        address renter;\r\n        string startDate; // Timestamp de dbut\r\n        string endDate;   // Timestamp de fin\r\n        string startTime; // Heure de dbut (en secondes)\r\n        string returnTime; // Heure de retour (en secondes)\r\n    }\r\n\r\n\r\nmapping(address => User) public users;\r\n\r\n\r\n    mapping(address => uint256) public balances; // Solde de chaque utilisateur\r\n\r\n    mapping(uint => Car) public cars; // Associe un identifiant  chaque voiture\r\n    mapping(address => Rental) public rentals;\r\n    uint public carCount = 0;\r\n    event CarAdded(uint carId, string model, uint rentalPrice, string status, string imageUrl );\r\n    event CarRented(uint carId, address renter, string startDate, string endDate, string startTime, string returnTime);\r\n    event CarReturned(uint carId, address renter, string newStatus);\r\n    event CarAddedDebug(uint carCount, string model, uint rentalPrice, string status, string imageUrl);\r\n\r\n    constructor() {\r\n        owner = msg.sender;\r\n    }\r\n\r\n    modifier onlyOwner() {\r\n        require(msg.sender == owner, \"Not the contract owner\");\r\n        _;\r\n    }\r\n\r\n    function withdrawFunds() public onlyOwner {\r\n        payable(owner).transfer(address(this).balance);\r\n    }\r\n\r\nfunction registerUser(string memory name, string memory email, string memory phone, string memory cin) public {\r\n    require(!users[msg.sender].exists, \"User already registered\");\r\n    users[msg.sender] = User(block.timestamp, name, email, phone, cin, true);\r\n}\r\n\r\n    // Fonction pour ajouter une voiture\r\n    function addCar(string memory model, uint rentalPrice, string memory status, string memory imageUrl) public {\r\n        carCount++;\r\n        cars[carCount] = Car(carCount, model, rentalPrice, true, msg.sender, status, imageUrl); // Ajouter statut et image\r\n        emit CarAdded(carCount, model, rentalPrice, status, imageUrl);\r\n    }\r\n\r\n    // Fonction pour obtenir les dtails d'une voiture\r\n    function getCar(uint carId) public view returns (uint, string memory, uint, bool, string memory, string memory) {\r\n        Car memory car = cars[carId];\r\n        return (car.id, car.model, car.rentalPrice, car.available, car.status, car.imageUrl);\r\n    }\r\n\r\n    // Fonction pour obtenir toutes les voitures\r\n    function getAllCars() public view returns (uint[] memory, string[] memory, uint[] memory, bool[] memory, address[] memory, string[] memory, string[] memory) {\r\n        uint[] memory ids = new uint[](carCount);\r\n        string[] memory models = new string[](carCount);\r\n        uint[] memory rentalPrices = new uint[](carCount);\r\n        bool[] memory available = new bool[](carCount);\r\n        address[] memory owners = new address[](carCount);\r\n        string[] memory statuses = new string[](carCount);\r\n        string[] memory imageUrls = new string[](carCount);\r\n\r\n        for (uint i = 1; i <= carCount; i++) {\r\n            Car memory car = cars[i];\r\n            ids[i - 1] = car.id;\r\n            models[i - 1] = car.model;\r\n            rentalPrices[i - 1] = car.rentalPrice;\r\n            available[i - 1] = car.available;\r\n            owners[i - 1] = car.owner;\r\n            statuses[i - 1] = car.status;\r\n            imageUrls[i - 1] = car.imageUrl;\r\n        }\r\n\r\n        return (ids, models, rentalPrices, available, owners, statuses, imageUrls);\r\n    }\r\n\r\n  \r\n   \r\n\r\n    // Fonction pour louer une voiture\r\n    function rentCar(\r\n        uint carId,\r\n        string memory startDate,\r\n        string memory endDate,\r\n        string memory startTime,\r\n        string memory returnTime\r\n    ) public payable {\r\n        Car storage car = cars[carId];\r\n                emit CarRented(carId, msg.sender, startDate, endDate, startTime, returnTime);\r\n\r\n        require(car.available, \"Car not available\");\r\n        require(msg.value >= car.rentalPrice, \"Incorrect rental fee\");\r\n\r\n        uint refund = msg.value - car.rentalPrice;\r\n        if (refund > 0) {\r\n            payable(msg.sender).transfer(refund); // Rembourser l'excdent\r\n        }\r\n\r\n        // Transfrer le montant de la location au propritaire de la voiture\r\n        payable(car.owner).transfer(car.rentalPrice);\r\n\r\n        car.available = false; // Marquer la voiture comme loue\r\n\r\n        // Enregistrer les informations de location\r\n        rentals[msg.sender] = Rental({\r\n            carId: carId,\r\n            renter: msg.sender,\r\n            startDate: startDate,\r\n            endDate: endDate,\r\n            startTime: startTime,\r\n            returnTime: returnTime\r\n        });\r\n\r\n        emit CarRented(carId, msg.sender, startDate, endDate, startTime, returnTime);\r\n    }\r\n\r\n\r\n    // Fonction pour rendre une voiture disponible\r\n    function makeCarAvailable(uint carId) public {\r\n        Car storage car = cars[carId];\r\n        car.available = true;\r\n        emit CarMadeAvailable(carId);\r\n    }\r\n\r\n    // Fonction pour ajouter des fonds  un utilisateur\r\n    function addBalance(address user, uint256 amount) public {\r\n        require(amount > 0, \"Amount must be greater than zero\");\r\n        balances[user] += amount;\r\n    }\r\n\r\n    // Fonction pour soustraire des fonds d'un utilisateur\r\n    function deductBalance(address user, uint256 amount) public {\r\n        require(amount > 0, \"Amount must be greater than zero\");\r\n        require(balances[user] >= amount, \"Insufficient balance\");\r\n        balances[user] -= amount;\r\n    }\r\n    // Fonction pour retourner une voiture\r\n     function returnCar(uint carId, string memory newStatus) public {\r\n       Car storage car = cars[carId];\r\n        car.available = true;\r\n        // Exemple de pnalit si le statut change\r\n        if (keccak256(bytes(newStatus)) != keccak256(bytes(car.status))) {\r\n            deductBalance(msg.sender, 20); // Pnaliser l'utilisateur de 20 wei\r\n        }\r\n        car.status = newStatus; // Mise  jour du statut\r\n        delete rentals[msg.sender];  \r\n        emit CarReturned(carId, msg.sender, newStatus);\r\n    }\r\n\r\n    event CarMadeAvailable(uint carId);\r\n    event DebugCarId(uint carId);\r\n    event DebugCarAvailability(uint carId, bool available);\r\n}\r\n",
  "sourcePath": "D:\\gi3\\Blockchain\\carRentalApp2\\contracts\\copy.sol",
  "compiler": {
    "name": "solc",
    "version": "0.8.0+commit.c7dfd78e.Emscripten.clang"
  },
  "schemaVersion": "3.4.16",
  "updatedAt": "2024-12-10T14:28:34.277Z",
  "devdoc": {
    "kind": "dev",
    "methods": {},
    "version": 1
  },
  "userdoc": {
    "kind": "user",
    "methods": {},
    "version": 1
  }
}