{
  "contractName": "CarRental",
  "abi": [
    {
      "inputs": [],
      "stateMutability": "nonpayable",
      "type": "constructor"
    },
    {
      "anonymous": false,
      "inputs": [
        {
          "indexed": false,
          "internalType": "uint256",
          "name": "carId",
          "type": "uint256"
        },
        {
          "indexed": false,
          "internalType": "string",
          "name": "model",
          "type": "string"
        },
        {
          "indexed": false,
          "internalType": "uint256",
          "name": "rentalPrice",
          "type": "uint256"
        },
        {
          "indexed": false,
          "internalType": "string",
          "name": "status",
          "type": "string"
        },
        {
          "indexed": false,
          "internalType": "string",
          "name": "imageUrl",
          "type": "string"
        }
      ],
      "name": "CarAdded",
      "type": "event"
    },
    {
      "anonymous": false,
      "inputs": [
        {
          "indexed": false,
          "internalType": "uint256",
          "name": "carCount",
          "type": "uint256"
        },
        {
          "indexed": false,
          "internalType": "string",
          "name": "model",
          "type": "string"
        },
        {
          "indexed": false,
          "internalType": "uint256",
          "name": "rentalPrice",
          "type": "uint256"
        },
        {
          "indexed": false,
          "internalType": "string",
          "name": "status",
          "type": "string"
        },
        {
          "indexed": false,
          "internalType": "string",
          "name": "imageUrl",
          "type": "string"
        }
      ],
      "name": "CarAddedDebug",
      "type": "event"
    },
    {
      "anonymous": false,
      "inputs": [
        {
          "indexed": false,
          "internalType": "uint256",
          "name": "carId",
          "type": "uint256"
        }
      ],
      "name": "CarMadeAvailable",
      "type": "event"
    },
    {
      "anonymous": false,
      "inputs": [
        {
          "indexed": false,
          "internalType": "uint256",
          "name": "carId",
          "type": "uint256"
        },
        {
          "indexed": false,
          "internalType": "address",
          "name": "renter",
          "type": "address"
        }
      ],
      "name": "CarRented",
      "type": "event"
    },
    {
      "anonymous": false,
      "inputs": [
        {
          "indexed": false,
          "internalType": "uint256",
          "name": "carId",
          "type": "uint256"
        },
        {
          "indexed": false,
          "internalType": "address",
          "name": "renter",
          "type": "address"
        },
        {
          "indexed": false,
          "internalType": "string",
          "name": "newStatus",
          "type": "string"
        }
      ],
      "name": "CarReturned",
      "type": "event"
    },
    {
      "anonymous": false,
      "inputs": [
        {
          "indexed": false,
          "internalType": "uint256",
          "name": "carId",
          "type": "uint256"
        },
        {
          "indexed": false,
          "internalType": "bool",
          "name": "available",
          "type": "bool"
        }
      ],
      "name": "DebugCarAvailability",
      "type": "event"
    },
    {
      "anonymous": false,
      "inputs": [
        {
          "indexed": false,
          "internalType": "uint256",
          "name": "carId",
          "type": "uint256"
        }
      ],
      "name": "DebugCarId",
      "type": "event"
    },
    {
      "inputs": [
        {
          "internalType": "address",
          "name": "",
          "type": "address"
        }
      ],
      "name": "balances",
      "outputs": [
        {
          "internalType": "uint256",
          "name": "",
          "type": "uint256"
        }
      ],
      "stateMutability": "view",
      "type": "function",
      "constant": true
    },
    {
      "inputs": [],
      "name": "carCount",
      "outputs": [
        {
          "internalType": "uint256",
          "name": "",
          "type": "uint256"
        }
      ],
      "stateMutability": "view",
      "type": "function",
      "constant": true
    },
    {
      "inputs": [
        {
          "internalType": "uint256",
          "name": "",
          "type": "uint256"
        }
      ],
      "name": "cars",
      "outputs": [
        {
          "internalType": "uint256",
          "name": "id",
          "type": "uint256"
        },
        {
          "internalType": "string",
          "name": "model",
          "type": "string"
        },
        {
          "internalType": "uint256",
          "name": "rentalPrice",
          "type": "uint256"
        },
        {
          "internalType": "bool",
          "name": "available",
          "type": "bool"
        },
        {
          "internalType": "address",
          "name": "owner",
          "type": "address"
        },
        {
          "internalType": "string",
          "name": "status",
          "type": "string"
        },
        {
          "internalType": "string",
          "name": "imageUrl",
          "type": "string"
        }
      ],
      "stateMutability": "view",
      "type": "function",
      "constant": true
    },
    {
      "inputs": [],
      "name": "owner",
      "outputs": [
        {
          "internalType": "address",
          "name": "",
          "type": "address"
        }
      ],
      "stateMutability": "view",
      "type": "function",
      "constant": true
    },
    {
      "inputs": [
        {
          "internalType": "address",
          "name": "",
          "type": "address"
        }
      ],
      "name": "rentals",
      "outputs": [
        {
          "internalType": "uint256",
          "name": "",
          "type": "uint256"
        }
      ],
      "stateMutability": "view",
      "type": "function",
      "constant": true
    },
    {
      "inputs": [
        {
          "internalType": "address",
          "name": "",
          "type": "address"
        }
      ],
      "name": "users",
      "outputs": [
        {
          "internalType": "uint256",
          "name": "id",
          "type": "uint256"
        },
        {
          "internalType": "string",
          "name": "name",
          "type": "string"
        },
        {
          "internalType": "string",
          "name": "email",
          "type": "string"
        },
        {
          "internalType": "string",
          "name": "phone",
          "type": "string"
        },
        {
          "internalType": "string",
          "name": "cin",
          "type": "string"
        },
        {
          "internalType": "bool",
          "name": "exists",
          "type": "bool"
        }
      ],
      "stateMutability": "view",
      "type": "function",
      "constant": true
    },
    {
      "inputs": [],
      "name": "withdrawFunds",
      "outputs": [],
      "stateMutability": "nonpayable",
      "type": "function"
    },
    {
      "inputs": [
        {
          "internalType": "string",
          "name": "name",
          "type": "string"
        },
        {
          "internalType": "string",
          "name": "email",
          "type": "string"
        },
        {
          "internalType": "string",
          "name": "phone",
          "type": "string"
        },
        {
          "internalType": "string",
          "name": "cin",
          "type": "string"
        }
      ],
      "name": "registerUser",
      "outputs": [],
      "stateMutability": "nonpayable",
      "type": "function"
    },
    {
      "inputs": [
        {
          "internalType": "string",
          "name": "model",
          "type": "string"
        },
        {
          "internalType": "uint256",
          "name": "rentalPrice",
          "type": "uint256"
        },
        {
          "internalType": "string",
          "name": "status",
          "type": "string"
        },
        {
          "internalType": "string",
          "name": "imageUrl",
          "type": "string"
        }
      ],
      "name": "addCar",
      "outputs": [],
      "stateMutability": "nonpayable",
      "type": "function"
    },
    {
      "inputs": [
        {
          "internalType": "uint256",
          "name": "carId",
          "type": "uint256"
        }
      ],
      "name": "getCar",
      "outputs": [
        {
          "internalType": "uint256",
          "name": "",
          "type": "uint256"
        },
        {
          "internalType": "string",
          "name": "",
          "type": "string"
        },
        {
          "internalType": "uint256",
          "name": "",
          "type": "uint256"
        },
        {
          "internalType": "bool",
          "name": "",
          "type": "bool"
        },
        {
          "internalType": "string",
          "name": "",
          "type": "string"
        },
        {
          "internalType": "string",
          "name": "",
          "type": "string"
        }
      ],
      "stateMutability": "view",
      "type": "function",
      "constant": true
    },
    {
      "inputs": [],
      "name": "getAllCars",
      "outputs": [
        {
          "internalType": "uint256[]",
          "name": "",
          "type": "uint256[]"
        },
        {
          "internalType": "string[]",
          "name": "",
          "type": "string[]"
        },
        {
          "internalType": "uint256[]",
          "name": "",
          "type": "uint256[]"
        },
        {
          "internalType": "bool[]",
          "name": "",
          "type": "bool[]"
        },
        {
          "internalType": "address[]",
          "name": "",
          "type": "address[]"
        },
        {
          "internalType": "string[]",
          "name": "",
          "type": "string[]"
        },
        {
          "internalType": "string[]",
          "name": "",
          "type": "string[]"
        }
      ],
      "stateMutability": "view",
      "type": "function",
      "constant": true
    },
    {
      "inputs": [
        {
          "internalType": "uint256",
          "name": "carId",
          "type": "uint256"
        }
      ],
      "name": "rentCar",
      "outputs": [],
      "stateMutability": "payable",
      "type": "function",
      "payable": true
    },
    {
      "inputs": [
        {
          "internalType": "uint256",
          "name": "carId",
          "type": "uint256"
        }
      ],
      "name": "makeCarAvailable",
      "outputs": [],
      "stateMutability": "nonpayable",
      "type": "function"
    },
    {
      "inputs": [
        {
          "internalType": "address",
          "name": "user",
          "type": "address"
        },
        {
          "internalType": "uint256",
          "name": "amount",
          "type": "uint256"
        }
      ],
      "name": "addBalance",
      "outputs": [],
      "stateMutability": "nonpayable",
      "type": "function"
    },
    {
      "inputs": [
        {
          "internalType": "address",
          "name": "user",
          "type": "address"
        },
        {
          "internalType": "uint256",
          "name": "amount",
          "type": "uint256"
        }
      ],
      "name": "deductBalance",
      "outputs": [],
      "stateMutability": "nonpayable",
      "type": "function"
    },
    {
      "inputs": [
        {
          "internalType": "uint256",
          "name": "carId",
          "type": "uint256"
        },
        {
          "internalType": "string",
          "name": "newStatus",
          "type": "string"
        }
      ],
      "name": "returnCar",
      "outputs": [],
      "stateMutability": "nonpayable",
      "type": "function"
    }
  ],
  "bytecode": "0x6080604052600060055534801561001557600080fd5b50336000806101000a81548173ffffffffffffffffffffffffffffffffffffffff021916908373ffffffffffffffffffffffffffffffffffffffff160217905550612da3806100656000396000f3fe6080604052600436106100f35760003560e01c80638da5cb5b1161008a578063abfe5d5711610059578063abfe5d5714610330578063e1e8aab714610361578063e2fbae481461037d578063f7746e36146103a6576100f3565b80638da5cb5b1461027157806393e54a561461029c5780639676fa6c146102c5578063a87430ba146102ee576100f3565b8063297a1f56116100c6578063297a1f561461019e5780633cfcf9a9146101c95780635e8be190146101f25780636ba85eb414610234576100f3565b8063131223a9146100f857806321e5383a1461012157806324600fc31461014a57806327e235e314610161575b600080fd5b34801561010457600080fd5b5061011f600480360381019061011a919061205a565b6103e9565b005b34801561012d57600080fd5b5061014860048036038101906101439190611eb0565b610458565b005b34801561015657600080fd5b5061015f6104f5565b005b34801561016d57600080fd5b5061018860048036038101906101839190611e87565b6105ec565b604051610195919061271f565b60405180910390f35b3480156101aa57600080fd5b506101b3610604565b6040516101c0919061271f565b60405180910390f35b3480156101d557600080fd5b506101f060048036038101906101eb9190611faf565b61060a565b005b3480156101fe57600080fd5b506102196004803603810190610214919061205a565b6107a1565b60405161022b969594939291906128a2565b60405180910390f35b34801561024057600080fd5b5061025b60048036038101906102569190611e87565b610a3c565b604051610268919061271f565b60405180910390f35b34801561027d57600080fd5b50610286610a54565b60405161029391906125a4565b60405180910390f35b3480156102a857600080fd5b506102c360048036038101906102be9190611eec565b610a78565b005b3480156102d157600080fd5b506102ec60048036038101906102e79190612083565b610c1e565b005b3480156102fa57600080fd5b5061031560048036038101906103109190611e87565b610d22565b604051610327969594939291906127a1565b60405180910390f35b34801561033c57600080fd5b50610345610f8b565b60405161035897969594939291906125bf565b60405180910390f35b61037b6004803603810190610376919061205a565b61180a565b005b34801561038957600080fd5b506103a4600480360381019061039f9190611eb0565b611a2c565b005b3480156103b257600080fd5b506103cd60048036038101906103c8919061205a565b611b4b565b6040516103e0979695949392919061281e565b60405180910390f35b600060036000838152602001908152602001600020905060018160030160006101000a81548160ff0219169083151502179055507faae6fd94e571b13e7a9df9975a5b28afc05f5ecff3cb1a8816852bdd443ab9f08260405161044c919061271f565b60405180910390a15050565b6000811161049b576040517f08c379a00000000000000000000000000000000000000000000000000000000081526004016104929061265f565b60405180910390fd5b80600260008473ffffffffffffffffffffffffffffffffffffffff1673ffffffffffffffffffffffffffffffffffffffff16815260200190815260200160002060008282546104ea9190612b12565b925050819055505050565b60008054906101000a900473ffffffffffffffffffffffffffffffffffffffff1673ffffffffffffffffffffffffffffffffffffffff163373ffffffffffffffffffffffffffffffffffffffff1614610583576040517f08c379a000000000000000000000000000000000000000000000000000000000815260040161057a906126ff565b60405180910390fd5b60008054906101000a900473ffffffffffffffffffffffffffffffffffffffff1673ffffffffffffffffffffffffffffffffffffffff166108fc479081150290604051600060405180830381858888f193505050501580156105e9573d6000803e3d6000fd5b50565b60026020528060005260406000206000915090505481565b60055481565b6005600081548092919061061d90612c58565b91905055506040518060e0016040528060055481526020018581526020018481526020016001151581526020013373ffffffffffffffffffffffffffffffffffffffff168152602001838152602001828152506003600060055481526020019081526020016000206000820151816000015560208201518160010190805190602001906106ab929190611d52565b506040820151816002015560608201518160030160006101000a81548160ff02191690831515021790555060808201518160030160016101000a81548173ffffffffffffffffffffffffffffffffffffffff021916908373ffffffffffffffffffffffffffffffffffffffff16021790555060a0820151816004019080519060200190610739929190611d52565b5060c0820151816005019080519060200190610756929190611d52565b509050507f05c2d074588a6bd2b3981239602124002e151ab709524e541e1bec54a0c06da960055485858585604051610793959493929190612918565b60405180910390a150505050565b600060606000806060806000600360008981526020019081526020016000206040518060e0016040529081600082015481526020016001820180546107e590612c26565b80601f016020809104026020016040519081016040528092919081815260200182805461081190612c26565b801561085e5780601f106108335761010080835404028352916020019161085e565b820191906000526020600020905b81548152906001019060200180831161084157829003601f168201915b50505050508152602001600282015481526020016003820160009054906101000a900460ff161515151581526020016003820160019054906101000a900473ffffffffffffffffffffffffffffffffffffffff1673ffffffffffffffffffffffffffffffffffffffff1673ffffffffffffffffffffffffffffffffffffffff1681526020016004820180546108f290612c26565b80601f016020809104026020016040519081016040528092919081815260200182805461091e90612c26565b801561096b5780601f106109405761010080835404028352916020019161096b565b820191906000526020600020905b81548152906001019060200180831161094e57829003601f168201915b5050505050815260200160058201805461098490612c26565b80601f01602080910402602001604051908101604052809291908181526020018280546109b090612c26565b80156109fd5780601f106109d2576101008083540402835291602001916109fd565b820191906000526020600020905b8154815290600101906020018083116109e057829003601f168201915b505050505081525050905080600001518160200151826040015183606001518460a001518560c001519650965096509650965096505091939550919395565b60046020528060005260406000206000915090505481565b60008054906101000a900473ffffffffffffffffffffffffffffffffffffffff1681565b600160003373ffffffffffffffffffffffffffffffffffffffff1673ffffffffffffffffffffffffffffffffffffffff16815260200190815260200160002060050160009054906101000a900460ff1615610b08576040517f08c379a0000000000000000000000000000000000000000000000000000000008152600401610aff906126bf565b60405180910390fd5b6040518060c0016040528042815260200185815260200184815260200183815260200182815260200160011515815250600160003373ffffffffffffffffffffffffffffffffffffffff1673ffffffffffffffffffffffffffffffffffffffff168152602001908152602001600020600082015181600001556020820151816001019080519060200190610b9d929190611d52565b506040820151816002019080519060200190610bba929190611d52565b506060820151816003019080519060200190610bd7929190611d52565b506080820151816004019080519060200190610bf4929190611d52565b5060a08201518160050160006101000a81548160ff02191690831515021790555090505050505050565b600060036000848152602001908152602001600020905060018160030160006101000a81548160ff02191690831515021790555080600401604051610c63919061258d565b6040518091039020828051906020012014610c8457610c83336014611a2c565b5b81816004019080519060200190610c9c929190611d52565b506000600460003373ffffffffffffffffffffffffffffffffffffffff1673ffffffffffffffffffffffffffffffffffffffff168152602001908152602001600020819055507f9476ecb56500885b7ec8035d72f2543fdf4011ce39e09de64c480214673274b6833384604051610d1593929190612763565b60405180910390a1505050565b6001602052806000526040600020600091509050806000015490806001018054610d4b90612c26565b80601f0160208091040260200160405190810160405280929190818152602001828054610d7790612c26565b8015610dc45780601f10610d9957610100808354040283529160200191610dc4565b820191906000526020600020905b815481529060010190602001808311610da757829003601f168201915b505050505090806002018054610dd990612c26565b80601f0160208091040260200160405190810160405280929190818152602001828054610e0590612c26565b8015610e525780601f10610e2757610100808354040283529160200191610e52565b820191906000526020600020905b815481529060010190602001808311610e3557829003601f168201915b505050505090806003018054610e6790612c26565b80601f0160208091040260200160405190810160405280929190818152602001828054610e9390612c26565b8015610ee05780601f10610eb557610100808354040283529160200191610ee0565b820191906000526020600020905b815481529060010190602001808311610ec357829003601f168201915b505050505090806004018054610ef590612c26565b80601f0160208091040260200160405190810160405280929190818152602001828054610f2190612c26565b8015610f6e5780601f10610f4357610100808354040283529160200191610f6e565b820191906000526020600020905b815481529060010190602001808311610f5157829003601f168201915b5050505050908060050160009054906101000a900460ff16905086565b6060806060806060806060600060055467ffffffffffffffff811115610fda577f4e487b7100000000000000000000000000000000000000000000000000000000600052604160045260246000fd5b6040519080825280602002602001820160405280156110085781602001602082028036833780820191505090505b509050600060055467ffffffffffffffff81111561104f577f4e487b7100000000000000000000000000000000000000000000000000000000600052604160045260246000fd5b60405190808252806020026020018201604052801561108257816020015b606081526020019060019003908161106d5790505b509050600060055467ffffffffffffffff8111156110c9577f4e487b7100000000000000000000000000000000000000000000000000000000600052604160045260246000fd5b6040519080825280602002602001820160405280156110f75781602001602082028036833780820191505090505b509050600060055467ffffffffffffffff81111561113e577f4e487b7100000000000000000000000000000000000000000000000000000000600052604160045260246000fd5b60405190808252806020026020018201604052801561116c5781602001602082028036833780820191505090505b509050600060055467ffffffffffffffff8111156111b3577f4e487b7100000000000000000000000000000000000000000000000000000000600052604160045260246000fd5b6040519080825280602002602001820160405280156111e15781602001602082028036833780820191505090505b509050600060055467ffffffffffffffff811115611228577f4e487b7100000000000000000000000000000000000000000000000000000000600052604160045260246000fd5b60405190808252806020026020018201604052801561125b57816020015b60608152602001906001900390816112465790505b509050600060055467ffffffffffffffff8111156112a2577f4e487b7100000000000000000000000000000000000000000000000000000000600052604160045260246000fd5b6040519080825280602002602001820160405280156112d557816020015b60608152602001906001900390816112c05790505b5090506000600190505b60055481116117e4576000600360008381526020019081526020016000206040518060e00160405290816000820154815260200160018201805461132290612c26565b80601f016020809104026020016040519081016040528092919081815260200182805461134e90612c26565b801561139b5780601f106113705761010080835404028352916020019161139b565b820191906000526020600020905b81548152906001019060200180831161137e57829003601f168201915b50505050508152602001600282015481526020016003820160009054906101000a900460ff161515151581526020016003820160019054906101000a900473ffffffffffffffffffffffffffffffffffffffff1673ffffffffffffffffffffffffffffffffffffffff1673ffffffffffffffffffffffffffffffffffffffff16815260200160048201805461142f90612c26565b80601f016020809104026020016040519081016040528092919081815260200182805461145b90612c26565b80156114a85780601f1061147d576101008083540402835291602001916114a8565b820191906000526020600020905b81548152906001019060200180831161148b57829003601f168201915b505050505081526020016005820180546114c190612c26565b80601f01602080910402602001604051908101604052809291908181526020018280546114ed90612c26565b801561153a5780601f1061150f5761010080835404028352916020019161153a565b820191906000526020600020905b81548152906001019060200180831161151d57829003601f168201915b50505050508152505090508060000151896001846115589190612b68565b8151811061158f577f4e487b7100000000000000000000000000000000000000000000000000000000600052603260045260246000fd5b6020026020010181815250508060200151886001846115ae9190612b68565b815181106115e5577f4e487b7100000000000000000000000000000000000000000000000000000000600052603260045260246000fd5b60200260200101819052508060400151876001846116039190612b68565b8151811061163a577f4e487b7100000000000000000000000000000000000000000000000000000000600052603260045260246000fd5b6020026020010181815250508060600151866001846116599190612b68565b81518110611690577f4e487b7100000000000000000000000000000000000000000000000000000000600052603260045260246000fd5b6020026020010190151590811515815250508060800151856001846116b59190612b68565b815181106116ec577f4e487b7100000000000000000000000000000000000000000000000000000000600052603260045260246000fd5b602002602001019073ffffffffffffffffffffffffffffffffffffffff16908173ffffffffffffffffffffffffffffffffffffffff16815250508060a00151846001846117399190612b68565b81518110611770577f4e487b7100000000000000000000000000000000000000000000000000000000600052603260045260246000fd5b60200260200101819052508060c001518360018461178e9190612b68565b815181106117c5577f4e487b7100000000000000000000000000000000000000000000000000000000600052603260045260246000fd5b60200260200101819052505080806117dc90612c58565b9150506112df565b50868686868686869d509d509d509d509d509d509d505050505050505090919293949596565b60006003600083815260200190815260200160002090508060030160009054906101000a900460ff16611872576040517f08c379a0000000000000000000000000000000000000000000000000000000008152600401611869906126df565b60405180910390fd5b80600201543410156118b9576040517f08c379a00000000000000000000000000000000000000000000000000000000081526004016118b09061269f565b60405180910390fd5b60008160020154346118cb9190612b68565b9050600081111561191e573373ffffffffffffffffffffffffffffffffffffffff166108fc829081150290604051600060405180830381858888f1935050505015801561191c573d6000803e3d6000fd5b505b8160030160019054906101000a900473ffffffffffffffffffffffffffffffffffffffff1673ffffffffffffffffffffffffffffffffffffffff166108fc83600201549081150290604051600060405180830381858888f1935050505015801561198c573d6000803e3d6000fd5b5060008260030160006101000a81548160ff02191690831515021790555082600460003373ffffffffffffffffffffffffffffffffffffffff1673ffffffffffffffffffffffffffffffffffffffff168152602001908152602001600020819055507f7d0805628acb0d2b0462559b11ff2ca0f8e8aa2b6f9a86e6dea0073285ea07368333604051611a1f92919061273a565b60405180910390a1505050565b60008111611a6f576040517f08c379a0000000000000000000000000000000000000000000000000000000008152600401611a669061265f565b60405180910390fd5b80600260008473ffffffffffffffffffffffffffffffffffffffff1673ffffffffffffffffffffffffffffffffffffffff168152602001908152602001600020541015611af1576040517f08c379a0000000000000000000000000000000000000000000000000000000008152600401611ae89061267f565b60405180910390fd5b80600260008473ffffffffffffffffffffffffffffffffffffffff1673ffffffffffffffffffffffffffffffffffffffff1681526020019081526020016000206000828254611b409190612b68565b925050819055505050565b6003602052806000526040600020600091509050806000015490806001018054611b7490612c26565b80601f0160208091040260200160405190810160405280929190818152602001828054611ba090612c26565b8015611bed5780601f10611bc257610100808354040283529160200191611bed565b820191906000526020600020905b815481529060010190602001808311611bd057829003601f168201915b5050505050908060020154908060030160009054906101000a900460ff16908060030160019054906101000a900473ffffffffffffffffffffffffffffffffffffffff1690806004018054611c4190612c26565b80601f0160208091040260200160405190810160405280929190818152602001828054611c6d90612c26565b8015611cba5780601f10611c8f57610100808354040283529160200191611cba565b820191906000526020600020905b815481529060010190602001808311611c9d57829003601f168201915b505050505090806005018054611ccf90612c26565b80601f0160208091040260200160405190810160405280929190818152602001828054611cfb90612c26565b8015611d485780601f10611d1d57610100808354040283529160200191611d48565b820191906000526020600020905b815481529060010190602001808311611d2b57829003601f168201915b5050505050905087565b828054611d5e90612c26565b90600052602060002090601f016020900481019282611d805760008555611dc7565b82601f10611d9957805160ff1916838001178555611dc7565b82800160010185558215611dc7579182015b82811115611dc6578251825591602001919060010190611dab565b5b509050611dd49190611dd8565b5090565b5b80821115611df1576000816000905550600101611dd9565b5090565b6000611e08611e03846129b1565b612980565b905082815260208101848484011115611e2057600080fd5b611e2b848285612be4565b509392505050565b600081359050611e4281612d3f565b92915050565b600082601f830112611e5957600080fd5b8135611e69848260208601611df5565b91505092915050565b600081359050611e8181612d56565b92915050565b600060208284031215611e9957600080fd5b6000611ea784828501611e33565b91505092915050565b60008060408385031215611ec357600080fd5b6000611ed185828601611e33565b9250506020611ee285828601611e72565b9150509250929050565b60008060008060808587031215611f0257600080fd5b600085013567ffffffffffffffff811115611f1c57600080fd5b611f2887828801611e48565b945050602085013567ffffffffffffffff811115611f4557600080fd5b611f5187828801611e48565b935050604085013567ffffffffffffffff811115611f6e57600080fd5b611f7a87828801611e48565b925050606085013567ffffffffffffffff811115611f9757600080fd5b611fa387828801611e48565b91505092959194509250565b60008060008060808587031215611fc557600080fd5b600085013567ffffffffffffffff811115611fdf57600080fd5b611feb87828801611e48565b9450506020611ffc87828801611e72565b935050604085013567ffffffffffffffff81111561201957600080fd5b61202587828801611e48565b925050606085013567ffffffffffffffff81111561204257600080fd5b61204e87828801611e48565b91505092959194509250565b60006020828403121561206c57600080fd5b600061207a84828501611e72565b91505092915050565b6000806040838503121561209657600080fd5b60006120a485828601611e72565b925050602083013567ffffffffffffffff8111156120c157600080fd5b6120cd85828601611e48565b9150509250929050565b60006120e38383612133565b60208301905092915050565b60006120fb83836122e0565b60208301905092915050565b6000612113838361237d565b905092915050565b6000612127838361256f565b60208301905092915050565b61213c81612b9c565b82525050565b61214b81612b9c565b82525050565b600061215c82612a36565b6121668185612aa1565b9350612171836129e1565b8060005b838110156121a257815161218988826120d7565b975061219483612a6d565b925050600181019050612175565b5085935050505092915050565b60006121ba82612a41565b6121c48185612ab2565b93506121cf836129f1565b8060005b838110156122005781516121e788826120ef565b97506121f283612a7a565b9250506001810190506121d3565b5085935050505092915050565b600061221882612a4c565b6122228185612ac3565b93508360208202850161223485612a01565b8060005b8581101561227057848403895281516122518582612107565b945061225c83612a87565b925060208a01995050600181019050612238565b50829750879550505050505092915050565b600061228d82612a57565b6122978185612ad4565b93506122a283612a11565b8060005b838110156122d35781516122ba888261211b565b97506122c583612a94565b9250506001810190506122a6565b5085935050505092915050565b6122e981612bae565b82525050565b6122f881612bae565b82525050565b6000815461230b81612c26565b6123158186612ae5565b94506001821660008114612330576001811461234157612374565b60ff19831686528186019350612374565b61234a85612a21565b60005b8381101561236c5781548189015260018201915060208101905061234d565b838801955050505b50505092915050565b600061238882612a62565b6123928185612af0565b93506123a2818560208601612bf3565b6123ab81612d2e565b840191505092915050565b60006123c182612a62565b6123cb8185612b01565b93506123db818560208601612bf3565b6123e481612d2e565b840191505092915050565b60006123fc602083612b01565b91507f416d6f756e74206d7573742062652067726561746572207468616e207a65726f6000830152602082019050919050565b600061243c601483612b01565b91507f496e73756666696369656e742062616c616e63650000000000000000000000006000830152602082019050919050565b600061247c601483612b01565b91507f496e636f72726563742072656e74616c206665650000000000000000000000006000830152602082019050919050565b60006124bc601783612b01565b91507f5573657220616c726561647920726567697374657265640000000000000000006000830152602082019050919050565b60006124fc601183612b01565b91507f436172206e6f7420617661696c61626c650000000000000000000000000000006000830152602082019050919050565b600061253c601683612b01565b91507f4e6f742074686520636f6e7472616374206f776e6572000000000000000000006000830152602082019050919050565b61257881612bda565b82525050565b61258781612bda565b82525050565b600061259982846122fe565b915081905092915050565b60006020820190506125b96000830184612142565b92915050565b600060e08201905081810360008301526125d9818a612282565b905081810360208301526125ed818961220d565b905081810360408301526126018188612282565b9050818103606083015261261581876121af565b905081810360808301526126298186612151565b905081810360a083015261263d818561220d565b905081810360c0830152612651818461220d565b905098975050505050505050565b60006020820190508181036000830152612678816123ef565b9050919050565b600060208201905081810360008301526126988161242f565b9050919050565b600060208201905081810360008301526126b88161246f565b9050919050565b600060208201905081810360008301526126d8816124af565b9050919050565b600060208201905081810360008301526126f8816124ef565b9050919050565b600060208201905081810360008301526127188161252f565b9050919050565b6000602082019050612734600083018461257e565b92915050565b600060408201905061274f600083018561257e565b61275c6020830184612142565b9392505050565b6000606082019050612778600083018661257e565b6127856020830185612142565b818103604083015261279781846123b6565b9050949350505050565b600060c0820190506127b6600083018961257e565b81810360208301526127c881886123b6565b905081810360408301526127dc81876123b6565b905081810360608301526127f081866123b6565b9050818103608083015261280481856123b6565b905061281360a08301846122ef565b979650505050505050565b600060e082019050612833600083018a61257e565b818103602083015261284581896123b6565b9050612854604083018861257e565b61286160608301876122ef565b61286e6080830186612142565b81810360a083015261288081856123b6565b905081810360c083015261289481846123b6565b905098975050505050505050565b600060c0820190506128b7600083018961257e565b81810360208301526128c981886123b6565b90506128d8604083018761257e565b6128e560608301866122ef565b81810360808301526128f781856123b6565b905081810360a083015261290b81846123b6565b9050979650505050505050565b600060a08201905061292d600083018861257e565b818103602083015261293f81876123b6565b905061294e604083018661257e565b818103606083015261296081856123b6565b9050818103608083015261297481846123b6565b90509695505050505050565b6000604051905081810181811067ffffffffffffffff821117156129a7576129a6612cff565b5b8060405250919050565b600067ffffffffffffffff8211156129cc576129cb612cff565b5b601f19601f8301169050602081019050919050565b6000819050602082019050919050565b6000819050602082019050919050565b6000819050602082019050919050565b6000819050602082019050919050565b60008190508160005260206000209050919050565b600081519050919050565b600081519050919050565b600081519050919050565b600081519050919050565b600081519050919050565b6000602082019050919050565b6000602082019050919050565b6000602082019050919050565b6000602082019050919050565b600082825260208201905092915050565b600082825260208201905092915050565b600082825260208201905092915050565b600082825260208201905092915050565b600081905092915050565b600082825260208201905092915050565b600082825260208201905092915050565b6000612b1d82612bda565b9150612b2883612bda565b9250827fffffffffffffffffffffffffffffffffffffffffffffffffffffffffffffffff03821115612b5d57612b5c612ca1565b5b828201905092915050565b6000612b7382612bda565b9150612b7e83612bda565b925082821015612b9157612b90612ca1565b5b828203905092915050565b6000612ba782612bba565b9050919050565b60008115159050919050565b600073ffffffffffffffffffffffffffffffffffffffff82169050919050565b6000819050919050565b82818337600083830152505050565b60005b83811015612c11578082015181840152602081019050612bf6565b83811115612c20576000848401525b50505050565b60006002820490506001821680612c3e57607f821691505b60208210811415612c5257612c51612cd0565b5b50919050565b6000612c6382612bda565b91507fffffffffffffffffffffffffffffffffffffffffffffffffffffffffffffffff821415612c9657612c95612ca1565b5b600182019050919050565b7f4e487b7100000000000000000000000000000000000000000000000000000000600052601160045260246000fd5b7f4e487b7100000000000000000000000000000000000000000000000000000000600052602260045260246000fd5b7f4e487b7100000000000000000000000000000000000000000000000000000000600052604160045260246000fd5b6000601f19601f8301169050919050565b612d4881612b9c565b8114612d5357600080fd5b50565b612d5f81612bda565b8114612d6a57600080fd5b5056fea2646970667358221220db8c2adea0ab864bc123f2cc8b1b42e00f7ad5e08921155a43ffec65061e55b464736f6c63430008000033",
  "immutableReferences": {},
  "source": "// SPDX-License-Identifier: MIT\r\npragma solidity ^0.8.0;\r\n\r\ncontract CarRental {\r\n    address public owner;\r\n\r\n    struct Car {\r\n        uint id;\r\n        string model;\r\n        uint rentalPrice;\r\n        bool available;\r\n\r\n        address owner; // Propritaire de la voiture\r\n        string status; // Nouveau champ : statut de la voiture\r\n        string imageUrl; // Nouveau champ : URL de l'image de la voiture\r\n    }\r\n\r\nmodifier onlyCarOwner(uint carId) {\r\n    require(msg.sender == cars[carId].owner, \"Not the car owner\");\r\n    _;\r\n}\r\n\r\n\r\n\r\n    struct User {\r\n        uint256 id;\r\n   \r\n        string name;\r\n        string email;\r\n        string phone;\r\n        string cin;\r\n        bool exists;\r\n    }\r\n\r\nmapping(address => User) public users;\r\n\r\n\r\n    mapping(address => uint256) public balances; // Solde de chaque utilisateur\r\n\r\n    mapping(uint => Car) public cars; // Associe un identifiant  chaque voiture\r\n    mapping(address => uint) public rentals;\r\n    uint public carCount = 0;\r\n    event CarAdded(uint carId, string model, uint rentalPrice, string status, string imageUrl );\r\n    event CarRented(uint carId, address renter);\r\n    event CarReturned(uint carId, address renter, string newStatus);\r\n    event CarAddedDebug(uint carCount, string model, uint rentalPrice, string status, string imageUrl);\r\n\r\n    constructor() {\r\n        owner = msg.sender;\r\n    }\r\n\r\n    modifier onlyOwner() {\r\n        require(msg.sender == owner, \"Not the contract owner\");\r\n        _;\r\n    }\r\n\r\n    function withdrawFunds() public onlyOwner {\r\n        payable(owner).transfer(address(this).balance);\r\n    }\r\n\r\nfunction registerUser(string memory name, string memory email, string memory phone, string memory cin) public {\r\n    require(!users[msg.sender].exists, \"User already registered\");\r\n    users[msg.sender] = User(block.timestamp, name, email, phone, cin, true);\r\n}\r\n\r\n    // Fonction pour ajouter une voiture\r\n    function addCar(string memory model, uint rentalPrice, string memory status, string memory imageUrl) public {\r\n        carCount++;\r\n        cars[carCount] = Car(carCount, model, rentalPrice, true, msg.sender, status, imageUrl); // Ajouter statut et image\r\n        emit CarAdded(carCount, model, rentalPrice, status, imageUrl);\r\n    }\r\n\r\n    // Fonction pour obtenir les dtails d'une voiture\r\n    function getCar(uint carId) public view returns (uint, string memory, uint, bool, string memory, string memory) {\r\n        Car memory car = cars[carId];\r\n        return (car.id, car.model, car.rentalPrice, car.available, car.status, car.imageUrl);\r\n    }\r\n\r\n    // Fonction pour obtenir toutes les voitures\r\n    function getAllCars() public view returns (uint[] memory, string[] memory, uint[] memory, bool[] memory, address[] memory, string[] memory, string[] memory) {\r\n        uint[] memory ids = new uint[](carCount);\r\n        string[] memory models = new string[](carCount);\r\n        uint[] memory rentalPrices = new uint[](carCount);\r\n        bool[] memory available = new bool[](carCount);\r\n        address[] memory owners = new address[](carCount);\r\n        string[] memory statuses = new string[](carCount);\r\n        string[] memory imageUrls = new string[](carCount);\r\n\r\n        for (uint i = 1; i <= carCount; i++) {\r\n            Car memory car = cars[i];\r\n            ids[i - 1] = car.id;\r\n            models[i - 1] = car.model;\r\n            rentalPrices[i - 1] = car.rentalPrice;\r\n            available[i - 1] = car.available;\r\n            owners[i - 1] = car.owner;\r\n            statuses[i - 1] = car.status;\r\n            imageUrls[i - 1] = car.imageUrl;\r\n        }\r\n\r\n        return (ids, models, rentalPrices, available, owners, statuses, imageUrls);\r\n    }\r\n\r\n    // Fonction pour louer une voiture\r\n    function rentCar(uint carId) public payable {\r\n        Car storage car = cars[carId];\r\n        require(car.available, \"Car not available\");\r\n        require(msg.value >= car.rentalPrice, \"Incorrect rental fee\");\r\n\r\n        uint refund = msg.value - car.rentalPrice;\r\n        if (refund > 0) {\r\n            payable(msg.sender).transfer(refund); // Rembourser l'excdent\r\n        }\r\n        // Transfrer le montant de la location au propritaire de la voiture\r\n        payable(car.owner).transfer(car.rentalPrice);\r\n        car.available = false; // Marquer la voiture comme loue\r\n        rentals[msg.sender] = carId;\r\n        emit CarRented(carId, msg.sender);\r\n    }\r\n\r\n    // Fonction pour rendre une voiture disponible\r\n    function makeCarAvailable(uint carId) public {\r\n        Car storage car = cars[carId];\r\n        car.available = true;\r\n        emit CarMadeAvailable(carId);\r\n    }\r\n\r\n    // Fonction pour ajouter des fonds  un utilisateur\r\n    function addBalance(address user, uint256 amount) public {\r\n        require(amount > 0, \"Amount must be greater than zero\");\r\n        balances[user] += amount;\r\n    }\r\n\r\n    // Fonction pour soustraire des fonds d'un utilisateur\r\n    function deductBalance(address user, uint256 amount) public {\r\n        require(amount > 0, \"Amount must be greater than zero\");\r\n        require(balances[user] >= amount, \"Insufficient balance\");\r\n        balances[user] -= amount;\r\n    }\r\n    // Fonction pour retourner une voiture\r\n     function returnCar(uint carId, string memory newStatus) public {\r\n       Car storage car = cars[carId];\r\n        car.available = true;\r\n        // Exemple de pnalit si le statut change\r\n        if (keccak256(bytes(newStatus)) != keccak256(bytes(car.status))) {\r\n            deductBalance(msg.sender, 20); // Pnaliser l'utilisateur de 20 wei\r\n        }\r\n        car.status = newStatus; // Mise  jour du statut\r\n        rentals[msg.sender] = 0;\r\n  \r\n        emit CarReturned(carId, msg.sender, newStatus);\r\n    }\r\n\r\n    event CarMadeAvailable(uint carId);\r\n    event DebugCarId(uint carId);\r\n    event DebugCarAvailability(uint carId, bool available);\r\n    \r\n}\r\n",
  "sourcePath": "D:\\gi3\\Blockchain\\carRentalApp2\\contracts\\CarRental.sol",
  "compiler": {
    "name": "solc",
    "version": "0.8.0+commit.c7dfd78e.Emscripten.clang"
  },
  "schemaVersion": "3.4.16",
  "updatedAt": "2024-12-10T14:28:38.197Z",
  "networkType": "ethereum",
  "devdoc": {
    "kind": "dev",
    "methods": {},
    "version": 1
  },
  "userdoc": {
    "kind": "user",
    "methods": {},
    "version": 1
  }
}